{
  "_format": "hh-sol-artifact-1",
  "contractName": "ProductTracker",
  "sourceName": "contracts/ProductTracker.sol",
  "abi": [
    {
      "inputs": [],
      "stateMutability": "nonpayable",
      "type": "constructor"
    },
    {
      "anonymous": false,
      "inputs": [
        {
          "indexed": true,
          "internalType": "uint256",
          "name": "productId",
          "type": "uint256"
        },
        {
          "indexed": false,
          "internalType": "bool",
          "name": "isAuthentic",
          "type": "bool"
        }
      ],
      "name": "AuthenticityVerified",
      "type": "event"
    },
    {
      "anonymous": false,
      "inputs": [
        {
          "indexed": true,
          "internalType": "uint256",
          "name": "productId",
          "type": "uint256"
        },
        {
          "indexed": false,
          "internalType": "string",
          "name": "certType",
          "type": "string"
        },
        {
          "indexed": false,
          "internalType": "string",
          "name": "certNumber",
          "type": "string"
        }
      ],
      "name": "CertificationAdded",
      "type": "event"
    },
    {
      "anonymous": false,
      "inputs": [
        {
          "indexed": true,
          "internalType": "uint256",
          "name": "productId",
          "type": "uint256"
        },
        {
          "indexed": false,
          "internalType": "string",
          "name": "step",
          "type": "string"
        },
        {
          "indexed": false,
          "internalType": "string",
          "name": "location",
          "type": "string"
        },
        {
          "indexed": false,
          "internalType": "address",
          "name": "recordedBy",
          "type": "address"
        }
      ],
      "name": "CheckpointAdded",
      "type": "event"
    },
    {
      "anonymous": false,
      "inputs": [
        {
          "indexed": true,
          "internalType": "uint256",
          "name": "productId",
          "type": "uint256"
        },
        {
          "indexed": false,
          "internalType": "string",
          "name": "name",
          "type": "string"
        },
        {
          "indexed": false,
          "internalType": "string",
          "name": "brand",
          "type": "string"
        },
        {
          "indexed": false,
          "internalType": "string",
          "name": "qrCodeHash",
          "type": "string"
        }
      ],
      "name": "ProductRegistered",
      "type": "event"
    },
    {
      "anonymous": false,
      "inputs": [
        {
          "indexed": true,
          "internalType": "address",
          "name": "user",
          "type": "address"
        },
        {
          "indexed": false,
          "internalType": "enum ProductTracker.Role",
          "name": "role",
          "type": "uint8"
        }
      ],
      "name": "UserRoleUpdated",
      "type": "event"
    },
    {
      "inputs": [
        {
          "internalType": "uint256",
          "name": "_productId",
          "type": "uint256"
        },
        {
          "internalType": "string",
          "name": "_certType",
          "type": "string"
        },
        {
          "internalType": "string",
          "name": "_certNumber",
          "type": "string"
        },
        {
          "internalType": "string",
          "name": "_issuer",
          "type": "string"
        },
        {
          "internalType": "uint256",
          "name": "_issueDate",
          "type": "uint256"
        },
        {
          "internalType": "uint256",
          "name": "_expiryDate",
          "type": "uint256"
        },
        {
          "internalType": "string",
          "name": "_documentHash",
          "type": "string"
        }
      ],
      "name": "addCertification",
      "outputs": [],
      "stateMutability": "nonpayable",
      "type": "function"
    },
    {
      "inputs": [
        {
          "internalType": "uint256",
          "name": "_productId",
          "type": "uint256"
        },
        {
          "internalType": "string",
          "name": "_step",
          "type": "string"
        },
        {
          "internalType": "string",
          "name": "_location",
          "type": "string"
        },
        {
          "internalType": "string",
          "name": "_status",
          "type": "string"
        },
        {
          "internalType": "string",
          "name": "_metadata",
          "type": "string"
        }
      ],
      "name": "addCheckpoint",
      "outputs": [],
      "stateMutability": "nonpayable",
      "type": "function"
    },
    {
      "inputs": [
        {
          "internalType": "address",
          "name": "_user",
          "type": "address"
        },
        {
          "internalType": "enum ProductTracker.Role",
          "name": "_role",
          "type": "uint8"
        }
      ],
      "name": "addUser",
      "outputs": [],
      "stateMutability": "nonpayable",
      "type": "function"
    },
    {
      "inputs": [
        {
          "internalType": "address",
          "name": "",
          "type": "address"
        }
      ],
      "name": "authorizedUsers",
      "outputs": [
        {
          "internalType": "bool",
          "name": "",
          "type": "bool"
        }
      ],
      "stateMutability": "view",
      "type": "function"
    },
    {
      "inputs": [
        {
          "internalType": "string",
          "name": "_qrCodeHash",
          "type": "string"
        }
      ],
      "name": "getProductByQRCode",
      "outputs": [
        {
          "internalType": "uint256",
          "name": "",
          "type": "uint256"
        }
      ],
      "stateMutability": "view",
      "type": "function"
    },
    {
      "inputs": [
        {
          "internalType": "uint256",
          "name": "_productId",
          "type": "uint256"
        }
      ],
      "name": "getProductCertifications",
      "outputs": [
        {
          "components": [
            {
              "internalType": "string",
              "name": "certType",
              "type": "string"
            },
            {
              "internalType": "string",
              "name": "certNumber",
              "type": "string"
            },
            {
              "internalType": "string",
              "name": "issuer",
              "type": "string"
            },
            {
              "internalType": "uint256",
              "name": "issueDate",
              "type": "uint256"
            },
            {
              "internalType": "uint256",
              "name": "expiryDate",
              "type": "uint256"
            },
            {
              "internalType": "string",
              "name": "documentHash",
              "type": "string"
            },
            {
              "internalType": "bool",
              "name": "isValid",
              "type": "bool"
            }
          ],
          "internalType": "struct ProductTracker.Certification[]",
          "name": "",
          "type": "tuple[]"
        }
      ],
      "stateMutability": "view",
      "type": "function"
    },
    {
      "inputs": [
        {
          "internalType": "uint256",
          "name": "_productId",
          "type": "uint256"
        }
      ],
      "name": "getProductDetails",
      "outputs": [
        {
          "internalType": "uint256",
          "name": "",
          "type": "uint256"
        },
        {
          "internalType": "string",
          "name": "",
          "type": "string"
        },
        {
          "internalType": "string",
          "name": "",
          "type": "string"
        },
        {
          "internalType": "string",
          "name": "",
          "type": "string"
        },
        {
          "internalType": "string",
          "name": "",
          "type": "string"
        },
        {
          "internalType": "string",
          "name": "",
          "type": "string"
        },
        {
          "internalType": "string",
          "name": "",
          "type": "string"
        },
        {
          "internalType": "uint256",
          "name": "",
          "type": "uint256"
        },
        {
          "internalType": "string",
          "name": "",
          "type": "string"
        },
        {
          "internalType": "bool",
          "name": "",
          "type": "bool"
        }
      ],
      "stateMutability": "view",
      "type": "function"
    },
    {
      "inputs": [
        {
          "internalType": "uint256",
          "name": "_productId",
          "type": "uint256"
        }
      ],
      "name": "getProductJourney",
      "outputs": [
        {
          "components": [
            {
              "internalType": "string",
              "name": "step",
              "type": "string"
            },
            {
              "internalType": "string",
              "name": "location",
              "type": "string"
            },
            {
              "internalType": "uint256",
              "name": "timestamp",
              "type": "uint256"
            },
            {
              "internalType": "string",
              "name": "status",
              "type": "string"
            },
            {
              "internalType": "address",
              "name": "recordedBy",
              "type": "address"
            },
            {
              "internalType": "string",
              "name": "metadata",
              "type": "string"
            }
          ],
          "internalType": "struct ProductTracker.Checkpoint[]",
          "name": "",
          "type": "tuple[]"
        }
      ],
      "stateMutability": "view",
      "type": "function"
    },
    {
      "inputs": [
        {
          "internalType": "address",
          "name": "_user",
          "type": "address"
        }
      ],
      "name": "getUserRole",
      "outputs": [
        {
          "internalType": "enum ProductTracker.Role",
          "name": "",
          "type": "uint8"
        }
      ],
      "stateMutability": "view",
      "type": "function"
    },
    {
      "inputs": [
        {
          "internalType": "address",
          "name": "_user",
          "type": "address"
        }
      ],
      "name": "isAuthorized",
      "outputs": [
        {
          "internalType": "bool",
          "name": "",
          "type": "bool"
        }
      ],
      "stateMutability": "view",
      "type": "function"
    },
    {
      "inputs": [],
      "name": "owner",
      "outputs": [
        {
          "internalType": "address",
          "name": "",
          "type": "address"
        }
      ],
      "stateMutability": "view",
      "type": "function"
    },
    {
      "inputs": [],
      "name": "productCount",
      "outputs": [
        {
          "internalType": "uint256",
          "name": "",
          "type": "uint256"
        }
      ],
      "stateMutability": "view",
      "type": "function"
    },
    {
      "inputs": [
        {
          "internalType": "uint256",
          "name": "",
          "type": "uint256"
        }
      ],
      "name": "products",
      "outputs": [
        {
          "internalType": "uint256",
          "name": "id",
          "type": "uint256"
        },
        {
          "internalType": "string",
          "name": "name",
          "type": "string"
        },
        {
          "internalType": "string",
          "name": "brand",
          "type": "string"
        },
        {
          "internalType": "string",
          "name": "sku",
          "type": "string"
        },
        {
          "internalType": "string",
          "name": "batch",
          "type": "string"
        },
        {
          "internalType": "string",
          "name": "originFarm",
          "type": "string"
        },
        {
          "internalType": "string",
          "name": "originCountry",
          "type": "string"
        },
        {
          "internalType": "uint256",
          "name": "manufacturingDate",
          "type": "uint256"
        },
        {
          "internalType": "string",
          "name": "qrCodeHash",
          "type": "string"
        },
        {
          "internalType": "bool",
          "name": "isInitialized",
          "type": "bool"
        },
        {
          "internalType": "bool",
          "name": "isAuthentic",
          "type": "bool"
        },
        {
          "internalType": "string",
          "name": "authenticityHash",
          "type": "string"
        }
      ],
      "stateMutability": "view",
      "type": "function"
    },
    {
      "inputs": [
        {
          "internalType": "string",
          "name": "",
          "type": "string"
        }
      ],
      "name": "qrCodeToProduct",
      "outputs": [
        {
          "internalType": "uint256",
          "name": "",
          "type": "uint256"
        }
      ],
      "stateMutability": "view",
      "type": "function"
    },
    {
      "inputs": [
        {
          "internalType": "string",
          "name": "_name",
          "type": "string"
        },
        {
          "internalType": "string",
          "name": "_brand",
          "type": "string"
        },
        {
          "internalType": "string",
          "name": "_sku",
          "type": "string"
        },
        {
          "internalType": "string",
          "name": "_batch",
          "type": "string"
        },
        {
          "internalType": "string",
          "name": "_originFarm",
          "type": "string"
        },
        {
          "internalType": "string",
          "name": "_originCountry",
          "type": "string"
        },
        {
          "internalType": "uint256",
          "name": "_manufacturingDate",
          "type": "uint256"
        },
        {
          "internalType": "string",
          "name": "_qrCodeHash",
          "type": "string"
        }
      ],
      "name": "registerProduct",
      "outputs": [],
      "stateMutability": "nonpayable",
      "type": "function"
    },
    {
      "inputs": [
        {
          "internalType": "address",
          "name": "_user",
          "type": "address"
        }
      ],
      "name": "removeUser",
      "outputs": [],
      "stateMutability": "nonpayable",
      "type": "function"
    },
    {
      "inputs": [
        {
          "internalType": "address",
          "name": "_user",
          "type": "address"
        },
        {
          "internalType": "enum ProductTracker.Role",
          "name": "_role",
          "type": "uint8"
        }
      ],
      "name": "updateUserRole",
      "outputs": [],
      "stateMutability": "nonpayable",
      "type": "function"
    },
    {
      "inputs": [
        {
          "internalType": "address",
          "name": "",
          "type": "address"
        }
      ],
      "name": "userRoles",
      "outputs": [
        {
          "internalType": "enum ProductTracker.Role",
          "name": "",
          "type": "uint8"
        }
      ],
      "stateMutability": "view",
      "type": "function"
    },
    {
      "inputs": [
        {
          "internalType": "uint256",
          "name": "_productId",
          "type": "uint256"
        },
        {
          "internalType": "string",
          "name": "_qrCodeHash",
          "type": "string"
        }
      ],
      "name": "verifyAuthenticity",
      "outputs": [
        {
          "internalType": "bool",
          "name": "",
          "type": "bool"
        }
      ],
      "stateMutability": "view",
      "type": "function"
    }
  ],
  "bytecode": "0x60806040523480156200001157600080fd5b50336000806101000a81548173ffffffffffffffffffffffffffffffffffffffff021916908373ffffffffffffffffffffffffffffffffffffffff1602179055506004600260003373ffffffffffffffffffffffffffffffffffffffff1673ffffffffffffffffffffffffffffffffffffffff16815260200190815260200160002060006101000a81548160ff02191690836004811115620000b857620000b76200011b565b5b02179055506001600360003373ffffffffffffffffffffffffffffffffffffffff1673ffffffffffffffffffffffffffffffffffffffff16815260200190815260200160002060006101000a81548160ff0219169083151502179055506200014a565b7f4e487b7100000000000000000000000000000000000000000000000000000000600052602160045260246000fd5b6140b5806200015a6000396000f3fe608060405234801561001057600080fd5b50600436106101215760003560e01c80638da5cb5b116100ad578063c291fe6211610071578063c291fe6214610364578063cdd1a6ee14610380578063d8305fd4146103b0578063e0f6ef87146103e0578063fe9fbb80146103fe57610121565b80638da5cb5b146102c257806391948a3e146102e057806398575188146102fc5780639c3eead914610318578063b1fcd14c1461033457610121565b80635f4d8e03116100f45780635f4d8e03146101d25780636813b53b1461020257806374d5e1001461023b5780637acc0b201461026b5780637e8ed157146102a657610121565b8063031c3154146101265780631828983a14610156578063278208511461018657806339ed2ef8146101b6575b600080fd5b610140600480360381019061013b91906129eb565b61042e565b60405161014d9190612a4d565b60405180910390f35b610170600480360381019061016b9190612ac6565b61045c565b60405161017d9190612b0e565b60405180910390f35b6101a0600480360381019061019b9190612ac6565b61047c565b6040516101ad9190612ba0565b60405180910390f35b6101d060048036038101906101cb9190612be7565b6104d2565b005b6101ec60048036038101906101e791906129eb565b61078e565b6040516101f99190612a4d565b60405180910390f35b61021c60048036038101906102179190612cf9565b6107b6565b6040516102329a99989796959493929190612da5565b60405180910390f35b61025560048036038101906102509190612ac6565b610c71565b6040516102629190612ba0565b60405180910390f35b61028560048036038101906102809190612cf9565b610c91565b60405161029d9c9b9a99989796959493929190612e72565b60405180910390f35b6102c060048036038101906102bb9190612f64565b61114b565b005b6102ca611606565b6040516102d7919061305e565b60405180910390f35b6102fa60048036038101906102f59190613079565b61162a565b005b61031660048036038101906103119190612ac6565b611960565b005b610332600480360381019061032d9190613218565b611b00565b005b61034e60048036038101906103499190612cf9565b611c9f565b60405161035b9190613433565b60405180910390f35b61037e60048036038101906103799190613218565b611ff0565b005b61039a60048036038101906103959190613455565b612137565b6040516103a79190612b0e565b60405180910390f35b6103ca60048036038101906103c59190612cf9565b6122a1565b6040516103d79190613620565b60405180910390f35b6103e8612623565b6040516103f59190612a4d565b60405180910390f35b61041860048036038101906104139190612ac6565b612629565b6040516104259190612b0e565b60405180910390f35b6005818051602081018201805184825260208301602085012081835280955050505050506000915090505481565b60036020528060005260406000206000915054906101000a900460ff1681565b6000600260008373ffffffffffffffffffffffffffffffffffffffff1673ffffffffffffffffffffffffffffffffffffffff16815260200190815260200160002060009054906101000a900460ff169050919050565b60038060048111156104e7576104e6612b29565b5b600260003373ffffffffffffffffffffffffffffffffffffffff1673ffffffffffffffffffffffffffffffffffffffff16815260200190815260200160002060009054906101000a900460ff16600481111561054657610545612b29565b5b148061059d575060008054906101000a900473ffffffffffffffffffffffffffffffffffffffff1673ffffffffffffffffffffffffffffffffffffffff163373ffffffffffffffffffffffffffffffffffffffff16145b6105dc576040517f08c379a00000000000000000000000000000000000000000000000000000000081526004016105d39061368e565b60405180910390fd5b8760046000828152602001908152602001600020600b0160009054906101000a900460ff16610640576040517f08c379a0000000000000000000000000000000000000000000000000000000008152600401610637906136fa565b60405180910390fd5b60006040518060e001604052808a8152602001898152602001888152602001878152602001868152602001858152602001600115158152509050600460008b8152602001908152602001600020600a0181908060018154018082558091505060019003906000526020600020906007020160009091909190915060008201518160000190816106cf9190613926565b5060208201518160010190816106e59190613926565b5060408201518160020190816106fb9190613926565b50606082015181600301556080820151816004015560a08201518160050190816107259190613926565b5060c08201518160060160006101000a81548160ff0219169083151502179055505050897f7037069aaa335877e62e8c337216d625ea614c4cae92e9fce28e2c80fd53d2668a8a60405161077a9291906139f8565b60405180910390a250505050505050505050565b60006005826040516107a09190613a6b565b9081526020016040518091039020549050919050565b60006060806060806060806000606060008a60046000828152602001908152602001600020600b0160009054906101000a900460ff1661082b576040517f08c379a0000000000000000000000000000000000000000000000000000000008152600401610822906136fa565b60405180910390fd5b6000600460008e81526020019081526020016000209050806000015481600101826002018360030184600401856005018660060187600701548860080189600b0160019054906101000a900460ff1688805461088690613749565b80601f01602080910402602001604051908101604052809291908181526020018280546108b290613749565b80156108ff5780601f106108d4576101008083540402835291602001916108ff565b820191906000526020600020905b8154815290600101906020018083116108e257829003601f168201915b5050505050985087805461091290613749565b80601f016020809104026020016040519081016040528092919081815260200182805461093e90613749565b801561098b5780601f106109605761010080835404028352916020019161098b565b820191906000526020600020905b81548152906001019060200180831161096e57829003601f168201915b5050505050975086805461099e90613749565b80601f01602080910402602001604051908101604052809291908181526020018280546109ca90613749565b8015610a175780601f106109ec57610100808354040283529160200191610a17565b820191906000526020600020905b8154815290600101906020018083116109fa57829003601f168201915b50505050509650858054610a2a90613749565b80601f0160208091040260200160405190810160405280929190818152602001828054610a5690613749565b8015610aa35780601f10610a7857610100808354040283529160200191610aa3565b820191906000526020600020905b815481529060010190602001808311610a8657829003601f168201915b50505050509550848054610ab690613749565b80601f0160208091040260200160405190810160405280929190818152602001828054610ae290613749565b8015610b2f5780601f10610b0457610100808354040283529160200191610b2f565b820191906000526020600020905b815481529060010190602001808311610b1257829003601f168201915b50505050509450838054610b4290613749565b80601f0160208091040260200160405190810160405280929190818152602001828054610b6e90613749565b8015610bbb5780601f10610b9057610100808354040283529160200191610bbb565b820191906000526020600020905b815481529060010190602001808311610b9e57829003601f168201915b50505050509350818054610bce90613749565b80601f0160208091040260200160405190810160405280929190818152602001828054610bfa90613749565b8015610c475780601f10610c1c57610100808354040283529160200191610c47565b820191906000526020600020905b815481529060010190602001808311610c2a57829003601f168201915b505050505091509b509b509b509b509b509b509b509b509b509b5050509193959799509193959799565b60026020528060005260406000206000915054906101000a900460ff1681565b6004602052806000526040600020600091509050806000015490806001018054610cba90613749565b80601f0160208091040260200160405190810160405280929190818152602001828054610ce690613749565b8015610d335780601f10610d0857610100808354040283529160200191610d33565b820191906000526020600020905b815481529060010190602001808311610d1657829003601f168201915b505050505090806002018054610d4890613749565b80601f0160208091040260200160405190810160405280929190818152602001828054610d7490613749565b8015610dc15780601f10610d9657610100808354040283529160200191610dc1565b820191906000526020600020905b815481529060010190602001808311610da457829003601f168201915b505050505090806003018054610dd690613749565b80601f0160208091040260200160405190810160405280929190818152602001828054610e0290613749565b8015610e4f5780601f10610e2457610100808354040283529160200191610e4f565b820191906000526020600020905b815481529060010190602001808311610e3257829003601f168201915b505050505090806004018054610e6490613749565b80601f0160208091040260200160405190810160405280929190818152602001828054610e9090613749565b8015610edd5780601f10610eb257610100808354040283529160200191610edd565b820191906000526020600020905b815481529060010190602001808311610ec057829003601f168201915b505050505090806005018054610ef290613749565b80601f0160208091040260200160405190810160405280929190818152602001828054610f1e90613749565b8015610f6b5780601f10610f4057610100808354040283529160200191610f6b565b820191906000526020600020905b815481529060010190602001808311610f4e57829003601f168201915b505050505090806006018054610f8090613749565b80601f0160208091040260200160405190810160405280929190818152602001828054610fac90613749565b8015610ff95780601f10610fce57610100808354040283529160200191610ff9565b820191906000526020600020905b815481529060010190602001808311610fdc57829003601f168201915b50505050509080600701549080600801805461101490613749565b80601f016020809104026020016040519081016040528092919081815260200182805461104090613749565b801561108d5780601f106110625761010080835404028352916020019161108d565b820191906000526020600020905b81548152906001019060200180831161107057829003601f168201915b50505050509080600b0160009054906101000a900460ff169080600b0160019054906101000a900460ff169080600c0180546110c890613749565b80601f01602080910402602001604051908101604052809291908181526020018280546110f490613749565b80156111415780601f1061111657610100808354040283529160200191611141565b820191906000526020600020905b81548152906001019060200180831161112457829003601f168201915b505050505090508c565b600360003373ffffffffffffffffffffffffffffffffffffffff1673ffffffffffffffffffffffffffffffffffffffff16815260200190815260200160002060009054906101000a900460ff16806111ee575060008054906101000a900473ffffffffffffffffffffffffffffffffffffffff1673ffffffffffffffffffffffffffffffffffffffff163373ffffffffffffffffffffffffffffffffffffffff16145b61122d576040517f08c379a000000000000000000000000000000000000000000000000000000000815260040161122490613ace565b60405180910390fd5b8460046000828152602001908152602001600020600b0160009054906101000a900460ff16611291576040517f08c379a0000000000000000000000000000000000000000000000000000000008152600401611288906136fa565b60405180910390fd5b600260048111156112a5576112a4612b29565b5b600260003373ffffffffffffffffffffffffffffffffffffffff1673ffffffffffffffffffffffffffffffffffffffff16815260200190815260200160002060009054906101000a900460ff16600481111561130457611303612b29565b5b148061138057506001600481111561131f5761131e612b29565b5b600260003373ffffffffffffffffffffffffffffffffffffffff1673ffffffffffffffffffffffffffffffffffffffff16815260200190815260200160002060009054906101000a900460ff16600481111561137e5761137d612b29565b5b145b806113fa575060048081111561139957611398612b29565b5b600260003373ffffffffffffffffffffffffffffffffffffffff1673ffffffffffffffffffffffffffffffffffffffff16815260200190815260200160002060009054906101000a900460ff1660048111156113f8576113f7612b29565b5b145b80611450575060008054906101000a900473ffffffffffffffffffffffffffffffffffffffff1673ffffffffffffffffffffffffffffffffffffffff163373ffffffffffffffffffffffffffffffffffffffff16145b61148f576040517f08c379a000000000000000000000000000000000000000000000000000000000815260040161148690613b60565b60405180910390fd5b60006040518060c001604052808781526020018681526020014281526020018581526020013373ffffffffffffffffffffffffffffffffffffffff16815260200184815250905060046000888152602001908152602001600020600901819080600181540180825580915050600190039060005260206000209060060201600090919091909150600082015181600001908161152b9190613926565b5060208201518160010190816115419190613926565b506040820151816002015560608201518160030190816115619190613926565b5060808201518160040160006101000a81548173ffffffffffffffffffffffffffffffffffffffff021916908373ffffffffffffffffffffffffffffffffffffffff16021790555060a08201518160050190816115be9190613926565b505050867f8199e9d4751a621cc374faf25c09f6e2ccafa210c6e63df2930ccab45e4cffec8787336040516115f593929190613b80565b60405180910390a250505050505050565b60008054906101000a900473ffffffffffffffffffffffffffffffffffffffff1681565b600180600481111561163f5761163e612b29565b5b600260003373ffffffffffffffffffffffffffffffffffffffff1673ffffffffffffffffffffffffffffffffffffffff16815260200190815260200160002060009054906101000a900460ff16600481111561169e5761169d612b29565b5b14806116f5575060008054906101000a900473ffffffffffffffffffffffffffffffffffffffff1673ffffffffffffffffffffffffffffffffffffffff163373ffffffffffffffffffffffffffffffffffffffff16145b611734576040517f08c379a000000000000000000000000000000000000000000000000000000000815260040161172b9061368e565b60405180910390fd5b6000825111611778576040517f08c379a000000000000000000000000000000000000000000000000000000000815260040161176f90613c11565b60405180910390fd5b600060058360405161178a9190613a6b565b908152602001604051809103902054146117d9576040517f08c379a00000000000000000000000000000000000000000000000000000000081526004016117d090613c7d565b60405180910390fd5b600160008154809291906117ec90613ccc565b91905055506000600154905060006004600083815260200190815260200160002090508181600001819055508a8160010190816118299190613926565b508981600201908161183b9190613926565b508881600301908161184d9190613926565b508781600401908161185f9190613926565b50868160050190816118719190613926565b50858160060190816118839190613926565b508481600701819055508381600801908161189e9190613926565b50600181600b0160006101000a81548160ff021916908315150217905550600181600b0160016101000a81548160ff0219169083151502179055506118e382856126d5565b81600c0190816118f39190613926565b50816005856040516119059190613a6b565b908152602001604051809103902081905550817f86338d4bbfb2e1f81114f256672394973406cb52966fa6a9421c6f353d8ab6218c8c8760405161194b93929190613d14565b60405180910390a25050505050505050505050565b60008054906101000a900473ffffffffffffffffffffffffffffffffffffffff1673ffffffffffffffffffffffffffffffffffffffff163373ffffffffffffffffffffffffffffffffffffffff16146119ee576040517f08c379a00000000000000000000000000000000000000000000000000000000081526004016119e590613dac565b60405180910390fd5b6000600260008373ffffffffffffffffffffffffffffffffffffffff1673ffffffffffffffffffffffffffffffffffffffff16815260200190815260200160002060006101000a81548160ff02191690836004811115611a5157611a50612b29565b5b02179055506000600360008373ffffffffffffffffffffffffffffffffffffffff1673ffffffffffffffffffffffffffffffffffffffff16815260200190815260200160002060006101000a81548160ff0219169083151502179055508073ffffffffffffffffffffffffffffffffffffffff167f8348234787debc8768e710bb8608864a37ffc99e6bde8bf5358171239895f2b36000604051611af59190612ba0565b60405180910390a250565b60008054906101000a900473ffffffffffffffffffffffffffffffffffffffff1673ffffffffffffffffffffffffffffffffffffffff163373ffffffffffffffffffffffffffffffffffffffff1614611b8e576040517f08c379a0000000000000000000000000000000000000000000000000000000008152600401611b8590613dac565b60405180910390fd5b80600260008473ffffffffffffffffffffffffffffffffffffffff1673ffffffffffffffffffffffffffffffffffffffff16815260200190815260200160002060006101000a81548160ff02191690836004811115611bf057611bef612b29565b5b02179055506001600360008473ffffffffffffffffffffffffffffffffffffffff1673ffffffffffffffffffffffffffffffffffffffff16815260200190815260200160002060006101000a81548160ff0219169083151502179055508173ffffffffffffffffffffffffffffffffffffffff167f8348234787debc8768e710bb8608864a37ffc99e6bde8bf5358171239895f2b382604051611c939190612ba0565b60405180910390a25050565b60608160046000828152602001908152602001600020600b0160009054906101000a900460ff16611d05576040517f08c379a0000000000000000000000000000000000000000000000000000000008152600401611cfc906136fa565b60405180910390fd5b60046000848152602001908152602001600020600a01805480602002602001604051908101604052809291908181526020016000905b82821015611fe457838290600052602060002090600702016040518060e0016040529081600082018054611d6e90613749565b80601f0160208091040260200160405190810160405280929190818152602001828054611d9a90613749565b8015611de75780601f10611dbc57610100808354040283529160200191611de7565b820191906000526020600020905b815481529060010190602001808311611dca57829003601f168201915b50505050508152602001600182018054611e0090613749565b80601f0160208091040260200160405190810160405280929190818152602001828054611e2c90613749565b8015611e795780601f10611e4e57610100808354040283529160200191611e79565b820191906000526020600020905b815481529060010190602001808311611e5c57829003601f168201915b50505050508152602001600282018054611e9290613749565b80601f0160208091040260200160405190810160405280929190818152602001828054611ebe90613749565b8015611f0b5780601f10611ee057610100808354040283529160200191611f0b565b820191906000526020600020905b815481529060010190602001808311611eee57829003601f168201915b505050505081526020016003820154815260200160048201548152602001600582018054611f3890613749565b80601f0160208091040260200160405190810160405280929190818152602001828054611f6490613749565b8015611fb15780601f10611f8657610100808354040283529160200191611fb1565b820191906000526020600020905b815481529060010190602001808311611f9457829003601f168201915b505050505081526020016006820160009054906101000a900460ff16151515158152505081526020019060010190611d3b565b50505050915050919050565b60008054906101000a900473ffffffffffffffffffffffffffffffffffffffff1673ffffffffffffffffffffffffffffffffffffffff163373ffffffffffffffffffffffffffffffffffffffff161461207e576040517f08c379a000000000000000000000000000000000000000000000000000000000815260040161207590613dac565b60405180910390fd5b80600260008473ffffffffffffffffffffffffffffffffffffffff1673ffffffffffffffffffffffffffffffffffffffff16815260200190815260200160002060006101000a81548160ff021916908360048111156120e0576120df612b29565b5b02179055508173ffffffffffffffffffffffffffffffffffffffff167f8348234787debc8768e710bb8608864a37ffc99e6bde8bf5358171239895f2b38260405161212b9190612ba0565b60405180910390a25050565b60008260046000828152602001908152602001600020600b0160009054906101000a900460ff1661219d576040517f08c379a0000000000000000000000000000000000000000000000000000000008152600401612194906136fa565b60405180910390fd5b6000600460008681526020019081526020016000209050806008016040516020016121c89190613e4f565b60405160208183030381529060405280519060200120846040516020016121ef9190613a6b565b604051602081830303815290604052805190602001201461221457600092505061229a565b600061222086866126d5565b905081600c016040516020016122369190613e4f565b604051602081830303815290604052805190602001208160405160200161225d9190613a6b565b60405160208183030381529060405280519060200120146122835760009350505061229a565b81600b0160019054906101000a900460ff16935050505b5092915050565b60608160046000828152602001908152602001600020600b0160009054906101000a900460ff16612307576040517f08c379a00000000000000000000000000000000000000000000000000000000081526004016122fe906136fa565b60405180910390fd5b60046000848152602001908152602001600020600901805480602002602001604051908101604052809291908181526020016000905b8282101561261757838290600052602060002090600602016040518060c001604052908160008201805461237090613749565b80601f016020809104026020016040519081016040528092919081815260200182805461239c90613749565b80156123e95780601f106123be576101008083540402835291602001916123e9565b820191906000526020600020905b8154815290600101906020018083116123cc57829003601f168201915b5050505050815260200160018201805461240290613749565b80601f016020809104026020016040519081016040528092919081815260200182805461242e90613749565b801561247b5780601f106124505761010080835404028352916020019161247b565b820191906000526020600020905b81548152906001019060200180831161245e57829003601f168201915b505050505081526020016002820154815260200160038201805461249e90613749565b80601f01602080910402602001604051908101604052809291908181526020018280546124ca90613749565b80156125175780601f106124ec57610100808354040283529160200191612517565b820191906000526020600020905b8154815290600101906020018083116124fa57829003601f168201915b505050505081526020016004820160009054906101000a900473ffffffffffffffffffffffffffffffffffffffff1673ffffffffffffffffffffffffffffffffffffffff1673ffffffffffffffffffffffffffffffffffffffff16815260200160058201805461258690613749565b80601f01602080910402602001604051908101604052809291908181526020018280546125b290613749565b80156125ff5780601f106125d4576101008083540402835291602001916125ff565b820191906000526020600020905b8154815290600101906020018083116125e257829003601f168201915b5050505050815250508152602001906001019061233d565b50505050915050919050565b60015481565b6000600360008373ffffffffffffffffffffffffffffffffffffffff1673ffffffffffffffffffffffffffffffffffffffff16815260200190815260200160002060009054906101000a900460ff16806126ce575060008054906101000a900473ffffffffffffffffffffffffffffffffffffffff1673ffffffffffffffffffffffffffffffffffffffff168273ffffffffffffffffffffffffffffffffffffffff16145b9050919050565b60606126e083612709565b826040516020016126f2929190613efe565b604051602081830303815290604052905092915050565b606060008203612750576040518060400160405280600181526020017f3000000000000000000000000000000000000000000000000000000000000000815250905061288c565b600082905060005b6000821461278257808061276b90613ccc565b915050600a8261277b9190613f67565b9150612758565b60008167ffffffffffffffff81111561279e5761279d6128c0565b5b6040519080825280601f01601f1916602001820160405280156127d05781602001600182028036833780820191505090505b50905060008290505b60008614612884576001816127ee9190613f98565b90506000600a80886128009190613f67565b61280a9190613fcc565b876128159190613f98565b6030612821919061401b565b905060008160f81b90508084848151811061283f5761283e614050565b5b60200101907effffffffffffffffffffffffffffffffffffffffffffffffffffffffffffff1916908160001a905350600a8861287b9190613f67565b975050506127d9565b819450505050505b919050565b6000604051905090565b600080fd5b600080fd5b600080fd5b600080fd5b6000601f19601f8301169050919050565b7f4e487b7100000000000000000000000000000000000000000000000000000000600052604160045260246000fd5b6128f8826128af565b810181811067ffffffffffffffff82111715612917576129166128c0565b5b80604052505050565b600061292a612891565b905061293682826128ef565b919050565b600067ffffffffffffffff821115612956576129556128c0565b5b61295f826128af565b9050602081019050919050565b82818337600083830152505050565b600061298e6129898461293b565b612920565b9050828152602081018484840111156129aa576129a96128aa565b5b6129b584828561296c565b509392505050565b600082601f8301126129d2576129d16128a5565b5b81356129e284826020860161297b565b91505092915050565b600060208284031215612a0157612a0061289b565b5b600082013567ffffffffffffffff811115612a1f57612a1e6128a0565b5b612a2b848285016129bd565b91505092915050565b6000819050919050565b612a4781612a34565b82525050565b6000602082019050612a626000830184612a3e565b92915050565b600073ffffffffffffffffffffffffffffffffffffffff82169050919050565b6000612a9382612a68565b9050919050565b612aa381612a88565b8114612aae57600080fd5b50565b600081359050612ac081612a9a565b92915050565b600060208284031215612adc57612adb61289b565b5b6000612aea84828501612ab1565b91505092915050565b60008115159050919050565b612b0881612af3565b82525050565b6000602082019050612b236000830184612aff565b92915050565b7f4e487b7100000000000000000000000000000000000000000000000000000000600052602160045260246000fd5b60058110612b6957612b68612b29565b5b50565b6000819050612b7a82612b58565b919050565b6000612b8a82612b6c565b9050919050565b612b9a81612b7f565b82525050565b6000602082019050612bb56000830184612b91565b92915050565b612bc481612a34565b8114612bcf57600080fd5b50565b600081359050612be181612bbb565b92915050565b600080600080600080600060e0888a031215612c0657612c0561289b565b5b6000612c148a828b01612bd2565b975050602088013567ffffffffffffffff811115612c3557612c346128a0565b5b612c418a828b016129bd565b965050604088013567ffffffffffffffff811115612c6257612c616128a0565b5b612c6e8a828b016129bd565b955050606088013567ffffffffffffffff811115612c8f57612c8e6128a0565b5b612c9b8a828b016129bd565b9450506080612cac8a828b01612bd2565b93505060a0612cbd8a828b01612bd2565b92505060c088013567ffffffffffffffff811115612cde57612cdd6128a0565b5b612cea8a828b016129bd565b91505092959891949750929550565b600060208284031215612d0f57612d0e61289b565b5b6000612d1d84828501612bd2565b91505092915050565b600081519050919050565b600082825260208201905092915050565b60005b83811015612d60578082015181840152602081019050612d45565b60008484015250505050565b6000612d7782612d26565b612d818185612d31565b9350612d91818560208601612d42565b612d9a816128af565b840191505092915050565b600061014082019050612dbb600083018d612a3e565b8181036020830152612dcd818c612d6c565b90508181036040830152612de1818b612d6c565b90508181036060830152612df5818a612d6c565b90508181036080830152612e098189612d6c565b905081810360a0830152612e1d8188612d6c565b905081810360c0830152612e318187612d6c565b9050612e4060e0830186612a3e565b818103610100830152612e538185612d6c565b9050612e63610120830184612aff565b9b9a5050505050505050505050565b600061018082019050612e88600083018f612a3e565b8181036020830152612e9a818e612d6c565b90508181036040830152612eae818d612d6c565b90508181036060830152612ec2818c612d6c565b90508181036080830152612ed6818b612d6c565b905081810360a0830152612eea818a612d6c565b905081810360c0830152612efe8189612d6c565b9050612f0d60e0830188612a3e565b818103610100830152612f208187612d6c565b9050612f30610120830186612aff565b612f3e610140830185612aff565b818103610160830152612f518184612d6c565b90509d9c50505050505050505050505050565b600080600080600060a08688031215612f8057612f7f61289b565b5b6000612f8e88828901612bd2565b955050602086013567ffffffffffffffff811115612faf57612fae6128a0565b5b612fbb888289016129bd565b945050604086013567ffffffffffffffff811115612fdc57612fdb6128a0565b5b612fe8888289016129bd565b935050606086013567ffffffffffffffff811115613009576130086128a0565b5b613015888289016129bd565b925050608086013567ffffffffffffffff811115613036576130356128a0565b5b613042888289016129bd565b9150509295509295909350565b61305881612a88565b82525050565b6000602082019050613073600083018461304f565b92915050565b600080600080600080600080610100898b03121561309a5761309961289b565b5b600089013567ffffffffffffffff8111156130b8576130b76128a0565b5b6130c48b828c016129bd565b985050602089013567ffffffffffffffff8111156130e5576130e46128a0565b5b6130f18b828c016129bd565b975050604089013567ffffffffffffffff811115613112576131116128a0565b5b61311e8b828c016129bd565b965050606089013567ffffffffffffffff81111561313f5761313e6128a0565b5b61314b8b828c016129bd565b955050608089013567ffffffffffffffff81111561316c5761316b6128a0565b5b6131788b828c016129bd565b94505060a089013567ffffffffffffffff811115613199576131986128a0565b5b6131a58b828c016129bd565b93505060c06131b68b828c01612bd2565b92505060e089013567ffffffffffffffff8111156131d7576131d66128a0565b5b6131e38b828c016129bd565b9150509295985092959890939650565b6005811061320057600080fd5b50565b600081359050613212816131f3565b92915050565b6000806040838503121561322f5761322e61289b565b5b600061323d85828601612ab1565b925050602061324e85828601613203565b9150509250929050565b600081519050919050565b600082825260208201905092915050565b6000819050602082019050919050565b600082825260208201905092915050565b60006132a082612d26565b6132aa8185613284565b93506132ba818560208601612d42565b6132c3816128af565b840191505092915050565b6132d781612a34565b82525050565b6132e681612af3565b82525050565b600060e08301600083015184820360008601526133098282613295565b915050602083015184820360208601526133238282613295565b9150506040830151848203604086015261333d8282613295565b915050606083015161335260608601826132ce565b50608083015161336560808601826132ce565b5060a083015184820360a086015261337d8282613295565b91505060c083015161339260c08601826132dd565b508091505092915050565b60006133a983836132ec565b905092915050565b6000602082019050919050565b60006133c982613258565b6133d38185613263565b9350836020820285016133e585613274565b8060005b858110156134215784840389528151613402858261339d565b945061340d836133b1565b925060208a019950506001810190506133e9565b50829750879550505050505092915050565b6000602082019050818103600083015261344d81846133be565b905092915050565b6000806040838503121561346c5761346b61289b565b5b600061347a85828601612bd2565b925050602083013567ffffffffffffffff81111561349b5761349a6128a0565b5b6134a7858286016129bd565b9150509250929050565b600081519050919050565b600082825260208201905092915050565b6000819050602082019050919050565b6134e681612a88565b82525050565b600060c08301600083015184820360008601526135098282613295565b915050602083015184820360208601526135238282613295565b915050604083015161353860408601826132ce565b50606083015184820360608601526135508282613295565b915050608083015161356560808601826134dd565b5060a083015184820360a086015261357d8282613295565b9150508091505092915050565b600061359683836134ec565b905092915050565b6000602082019050919050565b60006135b6826134b1565b6135c081856134bc565b9350836020820285016135d2856134cd565b8060005b8581101561360e57848403895281516135ef858261358a565b94506135fa8361359e565b925060208a019950506001810190506135d6565b50829750879550505050505092915050565b6000602082019050818103600083015261363a81846135ab565b905092915050565b7f496e73756666696369656e7420726f6c65000000000000000000000000000000600082015250565b6000613678601183612d31565b915061368382613642565b602082019050919050565b600060208201905081810360008301526136a78161366b565b9050919050565b7f50726f6475637420646f6573206e6f7420657869737400000000000000000000600082015250565b60006136e4601683612d31565b91506136ef826136ae565b602082019050919050565b60006020820190508181036000830152613713816136d7565b9050919050565b7f4e487b7100000000000000000000000000000000000000000000000000000000600052602260045260246000fd5b6000600282049050600182168061376157607f821691505b6020821081036137745761377361371a565b5b50919050565b60008190508160005260206000209050919050565b60006020601f8301049050919050565b600082821b905092915050565b6000600883026137dc7fffffffffffffffffffffffffffffffffffffffffffffffffffffffffffffffff8261379f565b6137e6868361379f565b95508019841693508086168417925050509392505050565b6000819050919050565b600061382361381e61381984612a34565b6137fe565b612a34565b9050919050565b6000819050919050565b61383d83613808565b6138516138498261382a565b8484546137ac565b825550505050565b600090565b613866613859565b613871818484613834565b505050565b5b818110156138955761388a60008261385e565b600181019050613877565b5050565b601f8211156138da576138ab8161377a565b6138b48461378f565b810160208510156138c3578190505b6138d76138cf8561378f565b830182613876565b50505b505050565b600082821c905092915050565b60006138fd600019846008026138df565b1980831691505092915050565b600061391683836138ec565b9150826002028217905092915050565b61392f82612d26565b67ffffffffffffffff811115613948576139476128c0565b5b6139528254613749565b61395d828285613899565b600060209050601f831160018114613990576000841561397e578287015190505b613988858261390a565b8655506139f0565b601f19841661399e8661377a565b60005b828110156139c6578489015182556001820191506020850194506020810190506139a1565b868310156139e357848901516139df601f8916826138ec565b8355505b6001600288020188555050505b505050505050565b60006040820190508181036000830152613a128185612d6c565b90508181036020830152613a268184612d6c565b90509392505050565b600081905092915050565b6000613a4582612d26565b613a4f8185613a2f565b9350613a5f818560208601612d42565b80840191505092915050565b6000613a778284613a3a565b915081905092915050565b7f4e6f7420617574686f72697a6564000000000000000000000000000000000000600082015250565b6000613ab8600e83612d31565b9150613ac382613a82565b602082019050919050565b60006020820190508181036000830152613ae781613aab565b9050919050565b7f496e73756666696369656e74207065726d697373696f6e7320666f722063686560008201527f636b706f696e7400000000000000000000000000000000000000000000000000602082015250565b6000613b4a602783612d31565b9150613b5582613aee565b604082019050919050565b60006020820190508181036000830152613b7981613b3d565b9050919050565b60006060820190508181036000830152613b9a8186612d6c565b90508181036020830152613bae8185612d6c565b9050613bbd604083018461304f565b949350505050565b7f515220636f646520686173682072657175697265640000000000000000000000600082015250565b6000613bfb601583612d31565b9150613c0682613bc5565b602082019050919050565b60006020820190508181036000830152613c2a81613bee565b9050919050565b7f515220636f646520616c726561647920696e2075736500000000000000000000600082015250565b6000613c67601683612d31565b9150613c7282613c31565b602082019050919050565b60006020820190508181036000830152613c9681613c5a565b9050919050565b7f4e487b7100000000000000000000000000000000000000000000000000000000600052601160045260246000fd5b6000613cd782612a34565b91507fffffffffffffffffffffffffffffffffffffffffffffffffffffffffffffffff8203613d0957613d08613c9d565b5b600182019050919050565b60006060820190508181036000830152613d2e8186612d6c565b90508181036020830152613d428185612d6c565b90508181036040830152613d568184612d6c565b9050949350505050565b7f4e6f74206f776e65720000000000000000000000000000000000000000000000600082015250565b6000613d96600983612d31565b9150613da182613d60565b602082019050919050565b60006020820190508181036000830152613dc581613d89565b9050919050565b60008154613dd981613749565b613de38186613a2f565b94506001821660008114613dfe5760018114613e1357613e46565b60ff1983168652811515820286019350613e46565b613e1c8561377a565b60005b83811015613e3e57815481890152600182019150602081019050613e1f565b838801955050505b50505092915050565b6000613e5b8284613dcc565b915081905092915050565b7f415554485f000000000000000000000000000000000000000000000000000000600082015250565b6000613e9c600583613a2f565b9150613ea782613e66565b600582019050919050565b7f5f00000000000000000000000000000000000000000000000000000000000000600082015250565b6000613ee8600183613a2f565b9150613ef382613eb2565b600182019050919050565b6000613f0982613e8f565b9150613f158285613a3a565b9150613f2082613edb565b9150613f2c8284613a3a565b91508190509392505050565b7f4e487b7100000000000000000000000000000000000000000000000000000000600052601260045260246000fd5b6000613f7282612a34565b9150613f7d83612a34565b925082613f8d57613f8c613f38565b5b828204905092915050565b6000613fa382612a34565b9150613fae83612a34565b9250828203905081811115613fc657613fc5613c9d565b5b92915050565b6000613fd782612a34565b9150613fe283612a34565b9250828202613ff081612a34565b9150828204841483151761400757614006613c9d565b5b5092915050565b600060ff82169050919050565b60006140268261400e565b91506140318361400e565b9250828201905060ff81111561404a57614049613c9d565b5b92915050565b7f4e487b7100000000000000000000000000000000000000000000000000000000600052603260045260246000fdfea26469706673582212209a943884bbcdd802d975ef3db33b36f0fdbaab0330d47ec053106c342ae8768064736f6c63430008150033",
  "linkReferences": {},
  "deployedLinkReferences": {}
}