{
  "_format": "hh-sol-artifact-1",
  "contractName": "ProductTracker",
  "sourceName": "contracts/ProductTracker.sol",
  "abi": [
    {
      "inputs": [],
      "stateMutability": "nonpayable",
      "type": "constructor"
    },
    {
      "anonymous": false,
      "inputs": [
        {
          "indexed": true,
          "internalType": "uint256",
          "name": "productId",
          "type": "uint256"
        },
        {
          "indexed": false,
          "internalType": "string",
          "name": "step",
          "type": "string"
        },
        {
          "indexed": false,
          "internalType": "string",
          "name": "location",
          "type": "string"
        }
      ],
      "name": "CheckpointAdded",
      "type": "event"
    },
    {
      "anonymous": false,
      "inputs": [
        {
          "indexed": true,
          "internalType": "uint256",
          "name": "productId",
          "type": "uint256"
        },
        {
          "indexed": false,
          "internalType": "string",
          "name": "name",
          "type": "string"
        },
        {
          "indexed": false,
          "internalType": "string",
          "name": "brand",
          "type": "string"
        }
      ],
      "name": "ProductRegistered",
      "type": "event"
    },
    {
      "inputs": [
        {
          "internalType": "uint256",
          "name": "_productId",
          "type": "uint256"
        },
        {
          "internalType": "string",
          "name": "_step",
          "type": "string"
        },
        {
          "internalType": "string",
          "name": "_location",
          "type": "string"
        },
        {
          "internalType": "string",
          "name": "_status",
          "type": "string"
        }
      ],
      "name": "addCheckpoint",
      "outputs": [],
      "stateMutability": "nonpayable",
      "type": "function"
    },
    {
      "inputs": [
        {
          "internalType": "uint256",
          "name": "_productId",
          "type": "uint256"
        }
      ],
      "name": "getProductDetails",
      "outputs": [
        {
          "internalType": "uint256",
          "name": "",
          "type": "uint256"
        },
        {
          "internalType": "string",
          "name": "",
          "type": "string"
        },
        {
          "internalType": "string",
          "name": "",
          "type": "string"
        },
        {
          "internalType": "string",
          "name": "",
          "type": "string"
        },
        {
          "internalType": "string",
          "name": "",
          "type": "string"
        },
        {
          "internalType": "string",
          "name": "",
          "type": "string"
        },
        {
          "internalType": "string",
          "name": "",
          "type": "string"
        },
        {
          "internalType": "uint256",
          "name": "",
          "type": "uint256"
        }
      ],
      "stateMutability": "view",
      "type": "function"
    },
    {
      "inputs": [
        {
          "internalType": "uint256",
          "name": "_productId",
          "type": "uint256"
        }
      ],
      "name": "getProductJourney",
      "outputs": [
        {
          "components": [
            {
              "internalType": "string",
              "name": "step",
              "type": "string"
            },
            {
              "internalType": "string",
              "name": "location",
              "type": "string"
            },
            {
              "internalType": "uint256",
              "name": "timestamp",
              "type": "uint256"
            },
            {
              "internalType": "string",
              "name": "status",
              "type": "string"
            }
          ],
          "internalType": "struct ProductTracker.Checkpoint[]",
          "name": "",
          "type": "tuple[]"
        }
      ],
      "stateMutability": "view",
      "type": "function"
    },
    {
      "inputs": [],
      "name": "owner",
      "outputs": [
        {
          "internalType": "address",
          "name": "",
          "type": "address"
        }
      ],
      "stateMutability": "view",
      "type": "function"
    },
    {
      "inputs": [],
      "name": "productCount",
      "outputs": [
        {
          "internalType": "uint256",
          "name": "",
          "type": "uint256"
        }
      ],
      "stateMutability": "view",
      "type": "function"
    },
    {
      "inputs": [
        {
          "internalType": "uint256",
          "name": "",
          "type": "uint256"
        }
      ],
      "name": "products",
      "outputs": [
        {
          "internalType": "uint256",
          "name": "id",
          "type": "uint256"
        },
        {
          "internalType": "string",
          "name": "name",
          "type": "string"
        },
        {
          "internalType": "string",
          "name": "brand",
          "type": "string"
        },
        {
          "internalType": "string",
          "name": "sku",
          "type": "string"
        },
        {
          "internalType": "string",
          "name": "batch",
          "type": "string"
        },
        {
          "internalType": "string",
          "name": "originFarm",
          "type": "string"
        },
        {
          "internalType": "string",
          "name": "originCountry",
          "type": "string"
        },
        {
          "internalType": "uint256",
          "name": "manufacturingDate",
          "type": "uint256"
        },
        {
          "internalType": "bool",
          "name": "isInitialized",
          "type": "bool"
        }
      ],
      "stateMutability": "view",
      "type": "function"
    },
    {
      "inputs": [
        {
          "internalType": "string",
          "name": "_name",
          "type": "string"
        },
        {
          "internalType": "string",
          "name": "_brand",
          "type": "string"
        },
        {
          "internalType": "string",
          "name": "_sku",
          "type": "string"
        },
        {
          "internalType": "string",
          "name": "_batch",
          "type": "string"
        },
        {
          "internalType": "string",
          "name": "_originFarm",
          "type": "string"
        },
        {
          "internalType": "string",
          "name": "_originCountry",
          "type": "string"
        },
        {
          "internalType": "uint256",
          "name": "_manufacturingDate",
          "type": "uint256"
        }
      ],
      "name": "registerProduct",
      "outputs": [],
      "stateMutability": "nonpayable",
      "type": "function"
    }
  ],
  "bytecode": "0x608060405234801561001057600080fd5b50336000806101000a81548173ffffffffffffffffffffffffffffffffffffffff021916908373ffffffffffffffffffffffffffffffffffffffff160217905550611c07806100606000396000f3fe608060405234801561001057600080fd5b506004361061007d5760003560e01c80637d8472351161005b5780637d8472351461010d5780638da5cb5b14610129578063d8305fd414610147578063e0f6ef87146101775761007d565b80635399d878146100825780636813b53b1461009e5780637acc0b20146100d5575b600080fd5b61009c6004803603810190610097919061110e565b610195565b005b6100b860048036038101906100b391906111c9565b61037c565b6040516100cc989796959493929190611284565b60405180910390f35b6100ef60048036038101906100ea91906111c9565b61078b565b60405161010499989796959493929190611347565b60405180910390f35b610127600480360381019061012291906113fe565b610b16565b005b610131610cba565b60405161013e9190611589565b60405180910390f35b610161600480360381019061015c91906111c9565b610cde565b60405161016e9190611730565b60405180910390f35b61017f610f78565b60405161018c9190611752565b60405180910390f35b60008054906101000a900473ffffffffffffffffffffffffffffffffffffffff1673ffffffffffffffffffffffffffffffffffffffff163373ffffffffffffffffffffffffffffffffffffffff1614610223576040517f08c379a000000000000000000000000000000000000000000000000000000000815260040161021a906117b9565b60405180910390fd5b836002600082815260200190815260200160002060090160009054906101000a900460ff16610287576040517f08c379a000000000000000000000000000000000000000000000000000000000815260040161027e90611825565b60405180910390fd5b600060405180608001604052808681526020018581526020014281526020018481525090506002600087815260200190815260200160002060080181908060018154018082558091505060019003906000526020600020906004020160009091909190915060008201518160000190816103019190611a51565b5060208201518160010190816103179190611a51565b506040820151816002015560608201518160030190816103379190611a51565b505050857f3c9ab45bc35c51798846a8615bad9cf59e8ea4f876bb1bfba17807d6aba8ffd5868660405161036c929190611b23565b60405180910390a2505050505050565b60006060806060806060806000886002600082815260200190815260200160002060090160009054906101000a900460ff166103ed576040517f08c379a00000000000000000000000000000000000000000000000000000000081526004016103e490611825565b60405180910390fd5b6000600260008c815260200190815260200160002090508060000154816001018260020183600301846004018560050186600601876007015486805461043290611874565b80601f016020809104026020016040519081016040528092919081815260200182805461045e90611874565b80156104ab5780601f10610480576101008083540402835291602001916104ab565b820191906000526020600020905b81548152906001019060200180831161048e57829003601f168201915b505050505096508580546104be90611874565b80601f01602080910402602001604051908101604052809291908181526020018280546104ea90611874565b80156105375780601f1061050c57610100808354040283529160200191610537565b820191906000526020600020905b81548152906001019060200180831161051a57829003601f168201915b5050505050955084805461054a90611874565b80601f016020809104026020016040519081016040528092919081815260200182805461057690611874565b80156105c35780601f10610598576101008083540402835291602001916105c3565b820191906000526020600020905b8154815290600101906020018083116105a657829003601f168201915b505050505094508380546105d690611874565b80601f016020809104026020016040519081016040528092919081815260200182805461060290611874565b801561064f5780601f106106245761010080835404028352916020019161064f565b820191906000526020600020905b81548152906001019060200180831161063257829003601f168201915b5050505050935082805461066290611874565b80601f016020809104026020016040519081016040528092919081815260200182805461068e90611874565b80156106db5780601f106106b0576101008083540402835291602001916106db565b820191906000526020600020905b8154815290600101906020018083116106be57829003601f168201915b505050505092508180546106ee90611874565b80601f016020809104026020016040519081016040528092919081815260200182805461071a90611874565b80156107675780601f1061073c57610100808354040283529160200191610767565b820191906000526020600020905b81548152906001019060200180831161074a57829003601f168201915b50505050509150995099509950995099509950995099505050919395975091939597565b60026020528060005260406000206000915090508060000154908060010180546107b490611874565b80601f01602080910402602001604051908101604052809291908181526020018280546107e090611874565b801561082d5780601f106108025761010080835404028352916020019161082d565b820191906000526020600020905b81548152906001019060200180831161081057829003601f168201915b50505050509080600201805461084290611874565b80601f016020809104026020016040519081016040528092919081815260200182805461086e90611874565b80156108bb5780601f10610890576101008083540402835291602001916108bb565b820191906000526020600020905b81548152906001019060200180831161089e57829003601f168201915b5050505050908060030180546108d090611874565b80601f01602080910402602001604051908101604052809291908181526020018280546108fc90611874565b80156109495780601f1061091e57610100808354040283529160200191610949565b820191906000526020600020905b81548152906001019060200180831161092c57829003601f168201915b50505050509080600401805461095e90611874565b80601f016020809104026020016040519081016040528092919081815260200182805461098a90611874565b80156109d75780601f106109ac576101008083540402835291602001916109d7565b820191906000526020600020905b8154815290600101906020018083116109ba57829003601f168201915b5050505050908060050180546109ec90611874565b80601f0160208091040260200160405190810160405280929190818152602001828054610a1890611874565b8015610a655780601f10610a3a57610100808354040283529160200191610a65565b820191906000526020600020905b815481529060010190602001808311610a4857829003601f168201915b505050505090806006018054610a7a90611874565b80601f0160208091040260200160405190810160405280929190818152602001828054610aa690611874565b8015610af35780601f10610ac857610100808354040283529160200191610af3565b820191906000526020600020905b815481529060010190602001808311610ad657829003601f168201915b5050505050908060070154908060090160009054906101000a900460ff16905089565b60008054906101000a900473ffffffffffffffffffffffffffffffffffffffff1673ffffffffffffffffffffffffffffffffffffffff163373ffffffffffffffffffffffffffffffffffffffff1614610ba4576040517f08c379a0000000000000000000000000000000000000000000000000000000008152600401610b9b906117b9565b60405180910390fd5b60016000815480929190610bb790611b89565b919050555060006001549050600060026000838152602001908152602001600020905081816000018190555088816001019081610bf49190611a51565b5087816002019081610c069190611a51565b5086816003019081610c189190611a51565b5085816004019081610c2a9190611a51565b5084816005019081610c3c9190611a51565b5083816006019081610c4e9190611a51565b5082816007018190555060018160090160006101000a81548160ff021916908315150217905550817fbb788d1bdfb4363138615cb6605f118fc2eb506f6efd90abf0dcc727458e5db78a8a604051610ca7929190611b23565b60405180910390a2505050505050505050565b60008054906101000a900473ffffffffffffffffffffffffffffffffffffffff1681565b6060816002600082815260200190815260200160002060090160009054906101000a900460ff16610d44576040517f08c379a0000000000000000000000000000000000000000000000000000000008152600401610d3b90611825565b60405180910390fd5b60026000848152602001908152602001600020600801805480602002602001604051908101604052809291908181526020016000905b82821015610f6c5783829060005260206000209060040201604051806080016040529081600082018054610dad90611874565b80601f0160208091040260200160405190810160405280929190818152602001828054610dd990611874565b8015610e265780601f10610dfb57610100808354040283529160200191610e26565b820191906000526020600020905b815481529060010190602001808311610e0957829003601f168201915b50505050508152602001600182018054610e3f90611874565b80601f0160208091040260200160405190810160405280929190818152602001828054610e6b90611874565b8015610eb85780601f10610e8d57610100808354040283529160200191610eb8565b820191906000526020600020905b815481529060010190602001808311610e9b57829003601f168201915b5050505050815260200160028201548152602001600382018054610edb90611874565b80601f0160208091040260200160405190810160405280929190818152602001828054610f0790611874565b8015610f545780601f10610f2957610100808354040283529160200191610f54565b820191906000526020600020905b815481529060010190602001808311610f3757829003601f168201915b50505050508152505081526020019060010190610d7a565b50505050915050919050565b60015481565b6000604051905090565b600080fd5b600080fd5b6000819050919050565b610fa581610f92565b8114610fb057600080fd5b50565b600081359050610fc281610f9c565b92915050565b600080fd5b600080fd5b6000601f19601f8301169050919050565b7f4e487b7100000000000000000000000000000000000000000000000000000000600052604160045260246000fd5b61101b82610fd2565b810181811067ffffffffffffffff8211171561103a57611039610fe3565b5b80604052505050565b600061104d610f7e565b90506110598282611012565b919050565b600067ffffffffffffffff82111561107957611078610fe3565b5b61108282610fd2565b9050602081019050919050565b82818337600083830152505050565b60006110b16110ac8461105e565b611043565b9050828152602081018484840111156110cd576110cc610fcd565b5b6110d884828561108f565b509392505050565b600082601f8301126110f5576110f4610fc8565b5b813561110584826020860161109e565b91505092915050565b6000806000806080858703121561112857611127610f88565b5b600061113687828801610fb3565b945050602085013567ffffffffffffffff81111561115757611156610f8d565b5b611163878288016110e0565b935050604085013567ffffffffffffffff81111561118457611183610f8d565b5b611190878288016110e0565b925050606085013567ffffffffffffffff8111156111b1576111b0610f8d565b5b6111bd878288016110e0565b91505092959194509250565b6000602082840312156111df576111de610f88565b5b60006111ed84828501610fb3565b91505092915050565b6111ff81610f92565b82525050565b600081519050919050565b600082825260208201905092915050565b60005b8381101561123f578082015181840152602081019050611224565b60008484015250505050565b600061125682611205565b6112608185611210565b9350611270818560208601611221565b61127981610fd2565b840191505092915050565b60006101008201905061129a600083018b6111f6565b81810360208301526112ac818a61124b565b905081810360408301526112c0818961124b565b905081810360608301526112d4818861124b565b905081810360808301526112e8818761124b565b905081810360a08301526112fc818661124b565b905081810360c0830152611310818561124b565b905061131f60e08301846111f6565b9998505050505050505050565b60008115159050919050565b6113418161132c565b82525050565b60006101208201905061135d600083018c6111f6565b818103602083015261136f818b61124b565b90508181036040830152611383818a61124b565b90508181036060830152611397818961124b565b905081810360808301526113ab818861124b565b905081810360a08301526113bf818761124b565b905081810360c08301526113d3818661124b565b90506113e260e08301856111f6565b6113f0610100830184611338565b9a9950505050505050505050565b600080600080600080600060e0888a03121561141d5761141c610f88565b5b600088013567ffffffffffffffff81111561143b5761143a610f8d565b5b6114478a828b016110e0565b975050602088013567ffffffffffffffff81111561146857611467610f8d565b5b6114748a828b016110e0565b965050604088013567ffffffffffffffff81111561149557611494610f8d565b5b6114a18a828b016110e0565b955050606088013567ffffffffffffffff8111156114c2576114c1610f8d565b5b6114ce8a828b016110e0565b945050608088013567ffffffffffffffff8111156114ef576114ee610f8d565b5b6114fb8a828b016110e0565b93505060a088013567ffffffffffffffff81111561151c5761151b610f8d565b5b6115288a828b016110e0565b92505060c06115398a828b01610fb3565b91505092959891949750929550565b600073ffffffffffffffffffffffffffffffffffffffff82169050919050565b600061157382611548565b9050919050565b61158381611568565b82525050565b600060208201905061159e600083018461157a565b92915050565b600081519050919050565b600082825260208201905092915050565b6000819050602082019050919050565b600082825260208201905092915050565b60006115ec82611205565b6115f681856115d0565b9350611606818560208601611221565b61160f81610fd2565b840191505092915050565b61162381610f92565b82525050565b6000608083016000830151848203600086015261164682826115e1565b9150506020830151848203602086015261166082826115e1565b9150506040830151611675604086018261161a565b506060830151848203606086015261168d82826115e1565b9150508091505092915050565b60006116a68383611629565b905092915050565b6000602082019050919050565b60006116c6826115a4565b6116d081856115af565b9350836020820285016116e2856115c0565b8060005b8581101561171e57848403895281516116ff858261169a565b945061170a836116ae565b925060208a019950506001810190506116e6565b50829750879550505050505092915050565b6000602082019050818103600083015261174a81846116bb565b905092915050565b600060208201905061176760008301846111f6565b92915050565b7f4e6f74206f776e65720000000000000000000000000000000000000000000000600082015250565b60006117a3600983611210565b91506117ae8261176d565b602082019050919050565b600060208201905081810360008301526117d281611796565b9050919050565b7f50726f6475637420646f6573206e6f7420657869737400000000000000000000600082015250565b600061180f601683611210565b915061181a826117d9565b602082019050919050565b6000602082019050818103600083015261183e81611802565b9050919050565b7f4e487b7100000000000000000000000000000000000000000000000000000000600052602260045260246000fd5b6000600282049050600182168061188c57607f821691505b60208210810361189f5761189e611845565b5b50919050565b60008190508160005260206000209050919050565b60006020601f8301049050919050565b600082821b905092915050565b6000600883026119077fffffffffffffffffffffffffffffffffffffffffffffffffffffffffffffffff826118ca565b61191186836118ca565b95508019841693508086168417925050509392505050565b6000819050919050565b600061194e61194961194484610f92565b611929565b610f92565b9050919050565b6000819050919050565b61196883611933565b61197c61197482611955565b8484546118d7565b825550505050565b600090565b611991611984565b61199c81848461195f565b505050565b5b818110156119c0576119b5600082611989565b6001810190506119a2565b5050565b601f821115611a05576119d6816118a5565b6119df846118ba565b810160208510156119ee578190505b611a026119fa856118ba565b8301826119a1565b50505b505050565b600082821c905092915050565b6000611a2860001984600802611a0a565b1980831691505092915050565b6000611a418383611a17565b9150826002028217905092915050565b611a5a82611205565b67ffffffffffffffff811115611a7357611a72610fe3565b5b611a7d8254611874565b611a888282856119c4565b600060209050601f831160018114611abb5760008415611aa9578287015190505b611ab38582611a35565b865550611b1b565b601f198416611ac9866118a5565b60005b82811015611af157848901518255600182019150602085019450602081019050611acc565b86831015611b0e5784890151611b0a601f891682611a17565b8355505b6001600288020188555050505b505050505050565b60006040820190508181036000830152611b3d818561124b565b90508181036020830152611b51818461124b565b90509392505050565b7f4e487b7100000000000000000000000000000000000000000000000000000000600052601160045260246000fd5b6000611b9482610f92565b91507fffffffffffffffffffffffffffffffffffffffffffffffffffffffffffffffff8203611bc657611bc5611b5a565b5b60018201905091905056fea2646970667358221220596dd76b9610dde6e7d76595f4d5aa11297b7abe4a27636734d0b9fec8b6a4c764736f6c63430008150033",
  "linkReferences": {},
  "deployedLinkReferences": {}
}